:020000040800F2
:10000000005000209D250008E52500080C08000888
:10001000E5250008E5250008E525000800000000AA
:10002000000000000000000000000000E5250008BE
:10003000E525000800000000E5250008E52500088A
:10004000E5250008E5250008E5250008E525000868
:10005000E5250008E5250008E5250008E525000858
:10006000E5250008E5250008E5250008E525000848
:10007000E5250008E5250008E5250008E525000838
:10008000E5250008E5250008E5250008E525000828
:10009000E5250008E5250008E5250008E525000818
:1000A000E5250008E5250008E5250008E525000808
:1000B000E5250008E5250008E5250008E5250008F8
:1000C000E5250008E5250008E5250008E5250008E8
:1000D000E5250008E5250008E5250008E5250008D8
:1000E000E5250008E5250008E525000800000000DA
:1000F0000000000000000000000000000000000000
:0C01000000000000000000005FF808F1A3
:10010C0010402DE928409FE50030D4E5000053E372
:10011C000500001A1C309FE5000053E318009F15E2
:10012C0000F020130130A0E30030C4E51040BDE81E
:10013C001EFF2FE16C08002000000000543E000858
:10014C001C309FE5000053E31EFF2F0110402DE9EA
:10015C0010109FE510009FE500F020E31040BDE873
:10016C001EFF2FE10000000070080020543E000824
:10017C0000400FE10F0014E31C00000A0D30A0E159
:10018C00D110A0E301F021E103D0A0E101AA4DE2DE
:10019C000A30A0E1D710A0E301F021E103D0A0E1E7
:1001AC00013A43E2DB10A0E301F021E103D0A0E12E
:1001BC00013A43E2D210A0E301F021E103D0A0E127
:1001CC00023A43E2D310A0E301F021E103D0A0E115
:1001DC00023943E2FF30C3E3FF3CC3E3DF10A0E38B
:1001EC0001F021E103D0A0E1C04084E304F021E15F
:1001FC0001A843E21EFF2FE194309FE5000053E37A
:10020C0080309F0503D0A0E1D8FFFFEB0010B0E3D6
:10021C0001B0A0E10170A0E178009FE578209FE596
:10022C00002052E0700900EB5C309FE5000053E3C6
:10023C000100000A0FE0A0E103F0A0E14C309FE5C3
:10024C00000053E30100000A0FE0A0E103F0A0E17D
:10025C000000B0E30010B0E30040B0E10150B0E1A9
:10026C0038009FE5000050E30100000A30009FE5D4
:10027C00260B00EBF20800EB0400B0E10510B0E136
:10028C005A0100EBE10800EB000008000000000040
:10029C0000000000000000006C080020EC080020AA
:1002AC001C2F00083C2F000804B02DE500B08DE297
:1002BC0014D04DE208000BE50C100BE50230A0E168
:1002CC000D304BE50D305BE50120A0E31233A0E1CE
:1002DC000320A0E10C301BE5102083E50000A0E119
:1002EC0000D08BE204B09DE41EFF2FE104B02DE59D
:1002FC0000B08DE214D04DE208000BE50C100BE5BC
:10030C000230A0E10D304BE50D305BE5103083E29F
:10031C000120A0E31233A0E10320A0E10C301BE587
:10032C00102083E50000A0E100D08BE204B09DE436
:10033C001EFF2FE104B02DE500B08DE214D04DE28C
:10034C0008000BE50C100BE510200BE511304BE50C
:10035C00E4309FE5182093E50C301BE5BF3483E2B5
:10036C00FF3883E22335A0E10110A0E31133A0E1B3
:10037C00C4109FE5033082E1183081E510301BE595
:10038C00070053E31500009A0C301BE5043093E58D
:10039C0010201BE5082042E20221A0E10F10A0E38F
:1003AC001122A0E10220E0E1032002E00C301BE569
:1003BC00042083E50C301BE5043093E511105BE55C
:1003CC0010201BE5082042E20221A0E11122A0E14D
:1003DC00022083E10C301BE5042083E5120000EAC7
:1003EC000C301BE5003093E510201BE50221A0E149
:1003FC000F10A0E31122A0E10220E0E1032002E0B3
:10040C000C301BE5002083E50C301BE5003093E538
:10041C0011105BE510201BE50221A0E11122A0E1E7
:10042C00022083E10C301BE5002083E50000A0E1F5
:10043C0000D08BE204B09DE41EFF2FE100100240BF
:10044C0000482DE904B08DE210D04DE208000BE518
:10045C000C100BE50210A0E10320A0E10130A0E19B
:10046C000D304BE50230A0E10E304BE50E305BE574
:10047C00010053E30400001A0D305BE50320A0E1FA
:10048C000C101BE508001BE586FFFFEB0E305BE54F
:10049C00000053E30400001A0D305BE50320A0E1DB
:1004AC000C101BE508001BE58FFFFFEB0000A0E123
:1004BC0004D04BE20048BDE81EFF2FE104B02DE54F
:1004CC0000B08DE214D04DE208000BE50C100BE5EA
:1004DC000230A0E10D304BE50C301BE5083093E504
:1004EC000D205BE50110A0E31122A0E1023003E036
:1004FC00000053E30130A0130030A003FF3003E2EF
:10050C00000053E30100000A0130A0E3000000EA00
:10051C000030A0E30300A0E100D08BE204B09DE426
:10052C001EFF2FE104B02DE500B08DE214D04DE29A
:10053C0010000BE510201BE50230A0E18331A0E197
:10054C00023083E08331A0E108300BE578309FE581
:10055C00003093E570209FE5013483E3003082E5A1
:10056C0068309FE50020A0E3002083E560309FE524
:10057C00003093E558209FE5013083E3003082E59D
:10058C0048309FE5002093E508301BE5030052E15D
:10059C000130A0330030A023FF3003E2000053E30E
:1005AC000000000AF5FFFFEA24309FE5003093E5D8
:1005BC001C209FE50130C3E3003082E50000A0E180
:1005CC0000D08BE204B09DE41EFF2FE1FCED00E0B7
:1005DC00041000E0001000E004B02DE500B08DE246
:1005EC0014D04DE210000BE510201BE50230A0E109
:1005FC000331A0E1023083E00322A0E1032042E0BA
:10060C000232A0E1023043E00333A0E108300BE5F5
:10061C0078309FE5003093E570209FE5013483E34B
:10062C00003082E568309FE50020A0E3002083E5E0
:10063C0060309FE5003093E558209FE5013083E35F
:10064C00003082E548309FE5002093E508301BE53B
:10065C00030052E10130A0330030A023FF3003E24D
:10066C00000053E30000000AF5FFFFEA24309FE589
:10067C00003093E51C209FE50130C3E3003082E598
:10068C000000A0E100D08BE204B09DE41EFF2FE13E
:10069C00FCED00E0041000E0001000E000482DE943
:1006AC0004B08DE230319FE5183093E528219FE5A9
:1006BC00013083E3183082E520319FE5043093E567
:1006CC0018219FE5023483E3043082E510319FE565
:1006DC000030D3E50320A0E108319FE50230D3E5DB
:1006EC0004119FE5FC009FE511FFFFEBF0309FE547
:1006FC000130D3E50320A0E1E8309FE50230D3E5DB
:10070C00E4109FE5DC009FE509FFFFEBD0309FE58F
:10071C000230D3E50320A0E1C8309FE50230D3E5D9
:10072C00C4109FE5BC009FE501FFFFEBB0309FE5D7
:10073C000330D3E50320A0E1A8309FE50230D3E5D8
:10074C00A4109FE59C009FE5F9FEFFEB90309FE520
:10075C000430D3E50320A0E188309FE50230D3E5D7
:10076C0084109FE57C009FE5F1FEFFEB70309FE568
:10077C000530D3E50320A0E168309FE50230D3E5D6
:10078C0064109FE55C009FE5E9FEFFEB50309FE5B0
:10079C000630D3E50320A0E148309FE50230D3E5D5
:1007AC0044109FE53C009FE5E1FEFFEB30309FE5F8
:1007BC000730D3E50320A0E128309FE50230D3E5D4
:1007CC0024109FE51C009FE5D9FEFFEB0000A0E183
:1007DC0004D04BE20048BDE81EFF2FE100100240A0
:1007EC00000001401400002004000020000801401B
:1007FC0000482DE904B08DE2A7FFFFEBFEFFFFEAF6
:10080C0004B02DE500B08DE20CD04DE20030A0E339
:10081C0008300BE508301BE5013083E208300BE5AE
:10082C00FBFFFFEA04B02DE500B08DE20000A0E173
:10083C0000D08BE204B09DE41EFF2FE104B02DE547
:10084C0000B08DE20130A0E30300A0E100D08BE208
:10085C0004B09DE41EFF2FE100482DE904B08DE2A9
:10086C0008D04DE208000BE50C100BE5630700EB1C
:10087C000030A0E11620A0E3002083E50030E0E387
:10088C000300A0E104D04BE20048BDE81EFF2FE1BD
:10089C0000482DE904B08DE208D04DE208000BE5CC
:1008AC000010E0E308001BE5EAFFFFEBFEFFFFEAA8
:1008BC0000482DE904B08DE218D04DE210000BE594
:1008CC0014100BE518200BE50030A0E308300BE505
:1008DC00090000EA00F020E30010A0E114301BE551
:1008EC00012083E214200BE5FF2001E20020C3E588
:1008FC0008301BE5013083E208300BE508201BE5CE
:10090C0018301BE5030052E1F1FFFFBA18301BE56C
:10091C000300A0E104D04BE20048BDE81EFF2FE12C
:10092C0000482DE904B08DE218D04DE210000BE523
:10093C0014100BE518200BE50030A0E308300BE594
:10094C00080000EA14301BE5012083E214200BE5BB
:10095C000030D3E50300A0E100F020E308301BE5F4
:10096C00013083E208300BE508201BE518301BE54D
:10097C00030052E1F2FFFFBA18301BE50300A0E1BF
:10098C0004D04BE20048BDE81EFF2FE104B02DE57A
:10099C0000B08DE20CD04DE208000BE50030E0E336
:1009AC000300A0E100D08BE204B09DE41EFF2FE118
:1009BC0004B02DE500B08DE20CD04DE208000BE543
:1009CC000C100BE50C301BE5022AA0E3042083E598
:1009DC000030A0E30300A0E100D08BE204B09DE462
:1009EC001EFF2FE104B02DE500B08DE20CD04DE2DE
:1009FC0008000BE50130A0E30300A0E100D08BE27E
:100A0C0004B09DE41EFF2FE104B02DE500B08DE293
:100A1C0014D04DE208000BE50C100BE510200BE593
:100A2C000030A0E30300A0E100D08BE204B09DE411
:100A3C001EFF2FE10E002DE904B02DE500B08DE274
:100A4C0008D04DE204000BE50030E0E30300A0E128
:100A5C0000D08BE204B09DE40CD08DE21EFF2FE1A0
:100A6C0000482DE904B08DE208D04DE208000BE5FA
:100A7C00E20600EB0030A0E10A20A0E3002083E5B1
:100A8C000030E0E30300A0E104D04BE20048BDE8F5
:100A9C001EFF2FE100482DE904B08DE208D04DE295
:100AAC0008000BE5D50600EB0030A0E10220A0E326
:100ABC00002083E50030E0E30300A0E104D04BE22A
:100ACC000048BDE81EFF2FE104B02DE500B08DE21B
:100ADC000CD04DE208000BE50030E0E30300A0E190
:100AEC0000D08BE204B09DE41EFF2FE104B02DE595
:100AFC0000B08DE20CD04DE208000BE50C100BE5BC
:100B0C000C301BE5022AA0E3042083E50030A0E3AF
:100B1C000300A0E100D08BE204B09DE41EFF2FE1A6
:100B2C0000482DE904B08DE208D04DE208000BE539
:100B3C000C100BE5B10600EB0030A0E11F20A0E388
:100B4C00002083E50030E0E30300A0E104D04BE299
:100B5C000048BDE81EFF2FE100482DE904B08DE2EE
:100B6C00A60600EB0030A0E10B20A0E3002083E5FB
:100B7C000030E0E30300A0E104D04BE20048BDE804
:100B8C001EFF2FE100482DE904B08DE210D04DE29C
:100B9C0008000BE50C100BE510200BE5970600EB9D
:100BAC000030A0E10C20A0E3002083E50030E0E35E
:100BBC000300A0E104D04BE20048BDE81EFF2FE18A
:100BCC0000482DE904B08DE218D04DE218000BE579
:100BDC0098209FE598309FE5033042E008300BE504
:100BEC0008301BE50C300BE588309FE5003093E5B1
:100BFC00000053E30200001A78309FE578209FE54F
:100C0C00002083E56C309FE5002093E518301BE550
:100C1C00033082E00C201BE5030052E10500002AA2
:100C2C00760600EB0030A0E10C20A0E3002083E569
:100C3C000030E0E3090000EA38309FE5003093E52E
:100C4C0010300BE52C309FE5002093E518301BE5A8
:100C5C00033082E01C209FE5003082E510301BE55C
:100C6C000300A0E104D04BE20048BDE81EFF2FE1D9
:100C7C0000500020000400008C080020EC0800202C
:100C8C0004B02DE500B08DE20000A0E100D08BE2B5
:100C9C0004B09DE41EFF2FE104B02DE500B08DE201
:100CAC0014D04DE20030A0E308300BE50030A0E397
:100CBC000C300BE50030A0E310300BE59C319FE5C8
:100CCC00043093E50C3003E208300BE508301BE5EB
:100CDC00080053E31100000A08301BE5080053E339
:100CEC004900008A08301BE5000053E30300000AAA
:100CFC0008301BE5040053E30400000A420000EA3C
:100D0C005C319FE55C219FE5002083E5420000EA11
:100D1C004C319FE54C219FE5002083E53E0000EA25
:100D2C0038319FE5043093E50F3703E20C300BE5C7
:100D3C0028319FE5043093E5013803E210300BE5D0
:100D4C000C301BE52339A0E1023083E20C300BE5BB
:100D5C0010301BE5000053E30C00001A0C101BE5CF
:100D6C000120A0E18222A0E1012042E00233A0E1B7
:100D7C00023043E08331A0E1013083E00334A0E191
:100D8C000320A0E1D8309FE5002083E5220000EA93
:100D9C00C8309FE5043093E5023803E2000053E3CA
:100DAC000C00000A0C101BE50120A0E18222A0E13E
:100DBC00012042E00233A0E1023043E08331A0E1A4
:100DCC00013083E00334A0E10320A0E190309FE5E3
:100DDC00002083E5100000EA0C101BE50120A0E1C7
:100DEC008222A0E1012042E00233A0E1023043E084
:100DFC008331A0E1013083E08334A0E10320A0E142
:100E0C005C309FE5002083E5030000EA50309FE54D
:100E1C0050209FE5002083E50000A0E13C309FE5D9
:100E2C00043093E52332A0E10F3003E238209FE534
:100E3C000330D2E708300BE524309FE5002093E522
:100E4C0008301BE53233A0E114209FE5003082E529
:100E5C000000A0E100D08BE204B09DE41EFF2FE166
:100E6C00001002402400002000127A00AC3E000862
:100E7C00D83F0008000000206C0800206C080020FF
:100E8C00EC080020003090E5010113E302318313DC
:100E9C000231C303030080E01EFF2FE1F0412DE976
:100EAC00008051E21600000A016048E20040A0E117
:100EBC000650A0E10070A0E3051087E0A11F81E0BF
:100ECC00C110A0E1818184E00800A0E1ECFFFFEB00
:100EDC000030A0E18101A0E1080080E2010056E1B0
:100EEC00000084E00900000A020053E10900008AB6
:100EFC00E3FFFFEB010040E2020050E1017081E2F0
:100F0C00ECFFFF3A0800A0E1F041BDE81EFF2FE125
:100F1C00020053E1FAFFFF9A010057E10150411220
:100F2C00E4FFFF1A0080A0E30800A0E1F041BDE857
:100F3C001EFF2FE1010050E30600000A020050E3FF
:100F4C000600000A1C309FE5000050E30300A001DE
:100F5C000000A0131EFF2FE10C009FE51EFF2FE1E8
:100F6C0008009FE51EFF2FE1B01A0008B81A000810
:100F7C00C01A000830402DE910319FE5000053E302
:100F8C000040A0E10CD04DE2025041E22800000AE2
:100F9C000500A0E104108DE200F020E3000050E316
:100FAC001D00000A04109DE50520A0E1BAFFFFEB2F
:100FBC00002050E21800000AB1FFFFEB043092E56C
:100FCC00010053E30030A003480084E51030840591
:100FDC000500A0030D00000A000053E3260000BA30
:100FEC00040082E2A6FFFFEB0030A0E34C0084E596
:100FFC00503084E5003090E5000053E3130000BA54
:10100C009FFFFFEB0030A0E10000A0E3103084E56F
:10101C000CD08DE23040BDE81EFF2FE10030A0E384
:10102C000900A0E3103084E50CD08DE23040BDE81F
:10103C001EFF2FE158309FE558109FE5031041E04B
:10104C00C111A0E10300A0E104108DE5D5FFFFEA7A
:10105C00230CA0E10F0000E2B5FFFFEB000050E312
:10106C000030A0E10000A0130900A003103084E5BB
:10107C000CD08DE23040BDE81EFF2FE10130A0E323
:10108C00040082E24C0084E5503084E5D8FFFFEA8E
:10109C0000000000043F0008CC3F0008003090E541
:1010AC00010013E310402DE90040A0E10400001AF8
:1010BC00020013E3480080E20900000A860300EBFB
:1010CC00003094E5040013E30900000A080013E360
:1010DC000C00000A100013E30F00000A1040BDE8DA
:1010EC001EFF2FE1780300EB003094E5040013E3BE
:1010FC00F5FFFF1AD00084E27B0300EB003094E58F
:10110C00080013E3F2FFFF1A150E84E27A0300EBDA
:10111C00003094E5100013E3EFFFFF1A1D0E84E27C
:10112C00970300EB1040BDE81EFF2FE10900A0E380
:10113C001EFF2FE10030A0E1000090E5000050E31D
:10114C00030080101EFF2FE11EFF2FE170402DE9E0
:10115C000040A0E10160A0E10400A0E1401096E590
:10116C0083FFFFEB005050E21000001A403096E570
:10117C000620A0E1143084E50410A0E10100A0E3F6
:10118C00103094E50FE0A0E113FF2FE1080050E3CD
:10119C00F0FFFF0A070050E30400001A0500A0E16D
:1011AC00401096E5E7FFFFEB040086E23F0300EBFF
:1011BC000D0500EBF0472DE900A0A0E304C081E28F
:1011CC00F2DF4DE20C7090E5188090E50050A0E144
:1011DC000240A0E10F00BCE80CE08DE20F00AEE88D
:1011EC000F00BCE80F00AEE80F00BCE80F00AEE843
:1011FC000F009CE808608DE20F008EE808A08DE5DA
:10120C001E0000EA48309DE51E2EA0E30610A0E16A
:10121C00143085E57A0F8DE22B0500EB0510A0E16B
:10122C00103095E57A2F8DE20A00A0E10FE0A0E1E5
:10123C0013FF2FE100C0A0E120E29DE50910A0E121
:10124C000530A0E10520A0E10100A0E340018DE8FC
:10125C004CE08DE50C90A0E10FE0A0E117FF2FE131
:10126C00004050E21700001A1E2EA0E30600A0E179
:10127C007A1F8DE2140500EB080059E31600001AE2
:10128C000500A0E148109DE539FFFFEB099084E2D1
:10129C00004050E2FFA009E2D9FFFF0A40109DE593
:1012AC000530A0E14C108DE50520A0E10100A0E384
:1012BC0040018DE810108AE30FE0A0E117FF2FE149
:1012CC00000050E30000000A0940A0E30400A0E184
:1012DC00F2DF8DE2F047BDE81EFF2FE1070059E376
:1012EC00F8FFFF1A0400A0E148109DE595FFFFEB05
:1012FC000C008DE2ED0200EB440090E51EFF2FE1A7
:10130C0070402DE90040E0E33C3091E5403081E550
:10131C0004E081E21EDE4DE20160A0E10050A0E19C
:10132C000F00BEE804C08DE20F00ACE80F00BEE871
:10133C000F00ACE80F00BEE80F00ACE80F009EE811
:10134C000F008CE800408DE5070000EA0D20A0E1BD
:10135C000510A0E1103095E50FE0A0E113FF2FE19F
:10136C00080050E30040A0E10800001A0500A0E1CD
:10137C0040109DE5FEFEFFEB000050E3F2FFFF0A7C
:10138C000900A0E31EDE8DE27040BDE81EFF2FE1D8
:10139C000D00A0E140FFFFEB060054E3F7FFFF1A3E
:1013AC000610A0E10500A0E167FFFFEB04E02DE5CE
:1013BC0002E0A0E13CC093E50C1080E518E080E56C
:1013CC000020A0E30310A0E140C083E504E09DE40D
:1013DC0077FFFFEA70402DE90C6090E5143090E542
:1013EC00000056E3403081E51300001A0120A0E113
:1013FC00103090E50040A0E10150A0E10010A0E108
:10140C000200A0E30FE0A0E113FF2FE1070050E37F
:10141C000400000A080050E30A00001A0510A0E1BD
:10142C000400A0E148FFFFEB0600A0E1401095E5A9
:10143C0044FFFFEB040085E29C0200EB0120A0E3DB
:10144C005BFFFFEB680400EB670400EB0C2090E5FE
:10145C00000052E33CC091150020A01340C0811540
:10146C0053FFFF1AA5FFFFEA1EFF2FE1083090E59E
:10147C00000053E30010A0E11EFF2F010100A0E3C8
:10148C0013FF2FE1010051E31200000A0A00008A49
:10149C000F0052E3000053930110A0130010A0039F
:1014AC000A00001A020180E0043090E500209DE55E
:1014BC000100A0E1003082E51EFF2FE1031041E2A4
:1014CC00010051E30100A0930200A0831EFF2FE155
:1014DC000200A0E31EFF2FE10100A0E11EFF2FE19F
:1014EC000030A0E304E02DE514D04DE20120A0E192
:1014FC000C108DE200108DE50310A0E1E0FFFFEB76
:10150C000C009DE514D08DE204E09DE41EFF2FE15C
:10151C00010051E31200000A0A00008A0F0052E396
:10152C00000053930110A0130010A0030A00001A2E
:10153C0000309DE5003093E5022180E0043082E527
:10154C000100A0E11EFF2FE1031041E2010051E375
:10155C000100A0930200A0831EFF2FE10200A0E374
:10156C001EFF2FE10100A0E11EFF2FE10030A0E3E0
:10157C0004E02DE514D04DE20CC08DE20C208DE57D
:10158C0000C08DE50120A0E10310A0E1DFFFFFEB1F
:10159C0014D08DE204E09DE41EFF2FE170402DE994
:1015AC000040E0E33C3092E5403082E504C082E24A
:1015BC008EDF4DE20060A0E10150A0E10F00BCE81D
:1015CC005CE08DE20F00AEE80F00BCE80F00AEE867
:1015DC000F00BCE80F00AEE80F009CE80F008EE88F
:1015EC0058408DE5130000EA0D20A0E10C10A0E39B
:1015FC0058008DE2DCFFFFEB0510A0E158008DE2F6
:10160C000FE0A0E116FF2FE1000050E30E00001ADE
:10161C0010309DE50D10A0E10800A0E358208DE2EC
:10162C000FE0A0E113FF2FE1053040E2FB0013E3D4
:10163C000040A0E10500000A0D00A0E198109DE516
:10164C004BFEFFEB000050E3E6FFFF0A0940A0E36E
:10165C0058008DE290FEFFEB0400A0E18EDF8DE2DE
:10166C007040BDE81EFF2FE1F04F2DE94C4091E595
:10167C00006053E2043094E424D04DE20150A0E128
:10168C000270A0E118408DE5038000E25E00000AC4
:10169C000220A0E31C20CDE52328A0E10338A0E123
:1016AC001D20CDE514308DE5FF2002E2024184E0DF
:1016BC00503095E5020058E338409505013013E2AF
:1016CC000800000A0700A0E114108DE2880200EB6C
:1016DC00000050E32500001A0800A0E324D08DE29E
:1016EC00F04FBDE81EFF2FE100A094E500005AE387
:1016FC00F3FFFF0A04308DE5083000E208308DE579
:10170C00020056E304909405B290D411483095E54C
:10171C000F10A0E30700A0E101B0C9E3B0A0D41101
:10172C00084084020440841203B08BE06BFFFFEB93
:10173C0000005BE11100008A0130CAE30BB083E0CA
:10174C0000005BE10D00009A8990A0E1029009E293
:10175C0001A00AE20AA089E101005AE39100000A03
:10176C0002005AE36900000A00005AE33800000A3C
:10177C000900A0E324D08DE2F04FBDE81EFF2FE15D
:10178C008930A0E1023003E201A00AE20A3083E1D1
:10179C00010053E32A00000A020053E31F00000A71
:1017AC00000053E3F1FFFF1A044084E200A094E52B
:1017BC0000005AE3D1FFFF1A0700A0E114108DE2DC
:1017CC004B0200EB000050E3E8FFFF1A04309DE5EC
:1017DC00000053E3BFFFFF0A0F10A0E30700A0E1D6
:1017EC003EFFFFEB0E10A0E30020A0E10700A0E1FC
:1017FC005DFFFFEB0700A0E10F10A0E39C229FE52B
:10180C0059FFFFEB0700A0E3D9FFFFEA0334A0E187
:10181C0014308DE50330A0E3BC31CDE1A3FFFFEA2A
:10182C00003094E5000058E302B1C3E31A00001A3B
:10183C00000053E3044084B201B08BE20B4184E01E
:10184C00D9FFFFEA000058E31B00001A084084E2AD
:10185C00D5FFFFEA000058E3D2FFFF0A0400A0E125
:10186C0087FDFFEB0030A0E1044084E2384085E5C1
:10187C000500A0E10340A0E100F020E3000050E3EC
:10188C00BAFFFF0A0700A0E10420A0E10F10A0E3BB
:10189C0035FFFFEB0700A0E3B5FFFFEA0D10A0E357
:1018AC000700A0E1209095E50CFFFFEB000059E14B
:1018BC005D00000A003094E5DCFFFFEA0D10A0E3A8
:1018CC000700A0E1209095E504FFFFEB000059E133
:1018DC00DDFFFF1A283095E5030054E1DAFFFF1A0B
:1018EC000400A0E166FDFFEB0F10A0E30020A0E1D7
:1018FC000700A0E11CFFFFEB0700A0E10520A0E121
:10190C000010A0E318FFFFEB0700A0E398FFFFEA2D
:10191C00003094E5000058E302B1C3E3DEFFFF1A88
:10192C0008209DE500005BE300005213BFFFFF1A87
:10193C00583085E20890A0E10C808DE504A084E28B
:10194C000380A0E10B0000EA0A00A0E110808DE505
:10195C00F7FDFFEB0020A0E30010A0E110308DE2BA
:10196C000500A0E100F020E3000050E3019089E2C3
:10197C0004A08AE23C00001A0B0059E1F1FFFF1AA7
:10198C000D10A0E30700A0E1D4FEFFEB0030A0E1B6
:10199C0010209DE50600A0E3242085E5284085E580
:1019AC00203085E572FFFFEA000058E3C2FFFF1A02
:1019BC00043094E5002094E5020073E3A22FA0E12B
:1019CC006AFFFF0A010073E3583085E210308DE5A1
:1019DC002800000A040084E2D5FDFFEB10308DE2F4
:1019EC000010A0E10500A0E100F020E3000050E3AE
:1019FC0095FFFF0A0090A0E10D10A0E30700A0E105
:101A0C00B6FEFFEB020059E3200085E51D00001A2D
:101A1C000530A0E110209DE52C20A3E5243085E5C0
:101A2C000600A0E3284085E551FFFFEA283095E544
:101A3C00030054E19EFFFF1A0030A0E32C3085E533
:101A4C000430A0E3303085E5033084E028B085E530
:101A5C00343085E5003094E5000053E30C0000BA07
:101A6C000130A0E304308DE572FFFFEA0C809DE5A8
:101A7C00003094E56DFFFFEA0D10A0E30700A0E134
:101A8C0096FEFFEB200085E510309DE5243085E5C2
:101A9C00E2FFFFEA01008BE2000184E090FFFFEA25
:101AAC00000000000030A0E3EEFEFFEA0130A0E3EE
:101ABC00ECFEFFEA0230A0E3EAFEFFEAF0432DE978
:101ACC000060A0E10250A0E10340A0E143DF4DE241
:101ADC00040051E301F19F97930000EAE01C000819
:101AEC00F01B0008381D0008681B0008FC1A0008D1
:101AFC00100052E3000053938B00001A003090E565
:101B0C00100013E38C00001A80708DE20700A0E136
:101B1C00200100EB0710A0E10030A0E30100A0E3DE
:101B2C00382096E510C315E004C09214013083E20E
:101B3C0000C08115040053E3041081E2F8FFFF1A82
:101B4C000700A0E1382086E50D0100EB0000A0E3C2
:101B5C0043DF8DE2F043BDE81EFF2FE1030053E3AA
:101B6C007100001A0248A0E12448A0E1223884E068
:101B7C00100053E32258A0E16B00008A003090E57E
:101B8C00080013E39100001A80708DE20700A0E1B9
:101B9C00EA0000EB000054E338C096E5851187E0BD
:101BAC000800000A0130A0E1841181E003004CE040
:101BBC008441A0E1002093E7042083E4010053E179
:101BCC00FBFFFF1A04C08CE00700A0E138C086E5DB
:101BDC00C90000EB0000A0E343DF8DE2F043BDE859
:101BEC001EFF2FE1FB3003E20288A0E1010053E36A
:101BFC002258A0E12888A0E14B00001A010054E310
:101C0C00089085E04600000A200059E34600008A4F
:101C1C000F0055E35A00009A050054E300005813D6
:101C2C000890A0E14000001A000058E37100000A7F
:101C3C00003096E5040013E37600001A0D70A0E165
:101C4C00108065E20700A0E1A90000EB000058E35A
:101C5C00383096E580708DC2090000DA857187E016
:101C6C00047047E2888183E0042093E4030058E188
:101C7C000420A7E5FBFFFF1A000059E30A00000A45
:101C8C000D70A0E1100055E30510A0211010A03339
:101C9C00811187E0841041E2898183E0042093E480
:101CAC00030058E10420A1E5FBFFFF1A010054E3F7
:101CBC004A00000A0F0055E3388086E55200009A6E
:101CCC00000059E31200000A0D00A0E1860000EBB1
:101CDC000F0000EA000053E31300001A0218A0E101
:101CEC00382090E50100A0E32118A0E104E086E291
:101CFC0010C311E004C0921403C18E17013083E2AB
:101D0C00100053E3F9FFFF1A020A15E2382086058A
:101D1C000600000A0000A0E343DF8DE2F043BDE8BB
:101D2C001EFF2FE1100059E30700009A0200A0E308
:101D3C0043DF8DE2F043BDE81EFF2FE11030C3E31B
:101D4C00D03180E4930000EB6EFFFFEA0F0055E307
:101D5C00F5FFFF8A003090E5010013E33400001A10
:101D6C0080708DE20700A0E1590000EB383096E559
:101D7C00000058E30380A0011900000A0090A0E3C2
:101D8C00B5FFFFEA100059E33A00009A050054E34E
:101D9C00E5FFFF1A003096E5010013E3109049E2CD
:101DAC000500000A0600A0E10130C3E3023083E322
:101DBC00483080E44A0000EB003096E5040013E361
:101DCC001400001A80008DE2450000EB9AFFFFEA38
:101DDC000830C3E3503180E4580000EB69FFFFEAA0
:101DEC0080708DE2048088E20700A0E1388086E5EF
:101DFC00350000EBC6FFFFEA000058E3383096E5EB
:101E0C0080708D12DCFFFF1AC1FFFFEA80008DE2AB
:101E1C00310000EBA9FFFFEA0600A0E10430C3E3A8
:101E2C00D03080E4320000EB0F0055E382FFFF8AD4
:101E3C00E3FFFFEA0600A0E10330C3E3483080E48F
:101E4C00230000EB010054E3C4FFFF0A0F0055E32D
:101E5C00E8FFFF8A80708DE20700A0E1200000EB14
:101E6C00000058E3383096E5C3FFFF1A0700A0E1E5
:101E7C00190000EBA6FFFFEA003096E5010013E322
:101E8C00EFFFFF0A050054E3E9FFFF1A0600A0E18B
:101E9C000130C3E3023083E3483080E480708DE28C
:101EAC000F0000EB0700A0E10D0000EBEBFFFFEAD9
:101EBC00341080E2380091E80520A0E11C002DE9E7
:101ECC00FF0F90E800709DE81CFF2FE1210B90ECB8
:101EDC001EFF2FE1210B80EC1EFF2FE1200B90EC5D
:101EEC001EFF2FE1200B80EC1EFF2FE1200BD0EC0E
:101EFC001EFF2FE1200BC0EC1EFF2FE10201F0ECC6
:101F0C000211F0EC0221F0EC0231F0EC0241F0ECA9
:101F1C000251F0EC0261F0EC0271F0EC0281F0EC99
:101F2C000291F0EC02A1F0EC02B1F0EC02C1F0EC89
:101F3C0002D1F0EC02E1F0EC02F1F0EC1EFF2FE12B
:101F4C000201E0EC0211E0EC0221E0EC0231E0ECE9
:101F5C000241E0EC0251E0EC0261E0EC0271E0ECD9
:101F6C000281E0EC0291E0EC02A1E0EC02B1E0ECC9
:101F7C0002C1E0EC02D1E0EC02E1E0EC02F1E0ECB9
:101F8C001EFF2FE10181B0FC0191B0FC01A1B0FC5E
:101F9C0001B1B0FC1EFF2FE10181A0FC0191A0FC5E
:101FAC0001A1A0FC01B1A0FC1EFF2FE100E02DE976
:101FBC00FF1F2DE90030A0E30C002DE904108DE289
:101FCC00CEFCFFEB40E09DE548D08DE21EFF2FE1FB
:101FDC0000E02DE9FF1F2DE90030A0E30C002DE9F6
:101FEC0004108DE2FAFCFFEB40E09DE548D08DE259
:101FFC001EFF2FE100E02DE9FF1F2DE90030A0E3CB
:10200C000C002DE904108DE20FFDFFEB40E09DE587
:10201C0048D08DE21EFF2FE100E02DE9FF1F2DE9D6
:10202C000030A0E30C002DE904308DE2DEFCFFEB68
:10203C0040E09DE548D08DE21EFF2FE100E02DE948
:10204C00FF1F2DE90030A0E30C002DE904208DE2E8
:10205C0051FDFFEB40E09DE548D08DE21EFF2FE1E6
:10206C000830D0E5000053E30B00001A0930D0E52E
:10207C00000053E30F00000A0310A0E3042090E5D6
:10208C00013043E20930C0E504C082E2003092E541
:10209C0004C080E50810C0E5020000EA013043E20C
:1020AC000830C0E5003090E50324A0E1002080E575
:1020BC00230CA0E11EFF2FE1B000A0E31EFF2FE1D7
:1020CC000030A0E304E02DE514D04DE20C108DE2BD
:1020DC0000108DE50C20A0E30310A0E1E8FCFFEB61
:1020EC000C009DE514D08DE204E09DE41EFF2FE171
:1020FC00F2FFFFEAF0472DE90070A0E30060A0E1D9
:10210C000150A0E100849FE510D04DE20500A0E154
:10211C00D2FFFFEBB00050E30040A0E18500000AC5
:10212C00800010E31A00000AF03000E2800053E354
:10213C003900000A900053E32B00000AA00053E37F
:10214C004600000AB00053E35200000AC00053E3FB
:10215C005E00000AF83000E2D00053E30800001AD9
:10216C00072000E2012082E20530A0E30110A0E389
:10217C000600A0E1022782E34FFEFFEB000050E3D4
:10218C00E1FFFF0A0900A0E310D08DE2F047BDE8A3
:10219C001EFF2FE10030A0E30021A0E1FF2002E2AE
:1021AC000CA08DE2049082E20600A0E10D20A0E3D9
:1021BC000310A0E100A08DE5B1FCFFEB0C209DE528
:1021CC00400014E3092042100220890000A08DE594
:1021DC000C208DE50030A0E30D20A0E30600A0E16B
:1021EC000310A0E1C9FCFFEBC7FFFFEA0D3000E2D2
:1021FC000D0053E3E2FFFF0A0030A0E30C408DE238
:10220C000F2000E20310A0E10600A0E100408DE5E4
:10221C009BFCFFEB00408DE5EDFFFFEA0044A0E1E5
:10222C000500A0E18DFFFFEB044080E1020954E3BF
:10223C00D3FFFF0A0030A0E3042208E00600A0E16F
:10224C000310A0E11CFEFFEB000050E30442A0E1F0
:10225C00CBFFFF1A020914E30170A013AAFFFFEAD7
:10226C000040E0E1FF2EA0E30030A0E3074004E2D1
:10227C005224A0E1080010E3FF2E02E20129821390
:10228C000600A0E10310A0E10BFEFFEB000050E301
:10229C009DFFFF0ABAFFFFEAB10050E33700000AC6
:1022AC00B20050E37700000AB30050E33F00000A8D
:1022BC00FC3000E2B40053E3B1FFFF0A072000E258
:1022CC00012082E20130A0E3022782E3EBFFFFEA68
:1022DC00C60050E33C00000AC70050E34900000A66
:1022EC00F83000E2C00053E35200000AC80050E38B
:1022FC005500000AC90050E3A1FFFF1A0500A0E138
:10230C0056FFFFEB0530A0E30020A0E10110A0E395
:10231C000600A0E102C6A0E10F2002E20FC80CE209
:10232C00012082E00C2082E1E3FDFFEB000050E392
:10233C0075FFFF0A92FFFFEA000057E30000A013AD
:10234C0090FFFF1A0C408DE20730A0E10E20A0E3B5
:10235C000710A0E10600A0E100408DE548FCFFEB72
:10236C000730A0E10F20A0E30600A0E10710A0E1D8
:10237C0000408DE565FCFFEB0700A0E181FFFFEA63
:10238C000500A0E135FFFFEB002050E27CFFFF0AC7
:10239C00F03012E27AFFFF1A0310A0E10600A0E170
:1023AC00C5FDFFEB000050E357FFFF0A74FFFFEA87
:1023BC000500A0E129FFFFEB0130A0E30020A0E124
:1023CC000310A0E10600A0E1D1FFFFEA0500A0E1A7
:1023DC0022FFFFEB0020A0E10330A0E302C6A0E146
:1023EC000F2002E20FC80CE2012082E20600A0E1FD
:1023FC000310A0E10C2082E1AFFDFFEB000050E3E5
:10240C0041FFFF0A5EFFFFEA0500A0E113FFFFEBAF
:10241C00002050E25AFFFF0AF03012E258FFFF1A78
:10242C000410A0E30600A0E1A3FDFFEB000050E3C5
:10243C0035FFFF0A52FFFFEA0F2000E2012082E283
:10244C000330A0E30A2882E38CFFFFEA0500A0E139
:10245C0002FFFFEB0020A0E10110A0E3F0C002E2BC
:10246C000F2002E210C08CE2012082E00530A0E3D4
:10247C000600A0E10C2682E18FFDFFEB000050E38B
:10248C0021FFFF0A3EFFFFEA0030A0E30CA08DE223
:10249C000D20A0E30310A0E10600A0E100A08DE553
:1024AC00F7FBFFEB0500A0E1ECFEFFEB800010E377
:1024BC000240A0E30800000A0C309DE57F0000E21A
:1024CC00100483E00C008DE50500A0E1E3FEFFEBBA
:1024DC00800010E3074084E2F6FFFF1A0030A0E30F
:1024EC000C209DE57F0000E2812F82E2100482E047
:1024FC000C008DE50D20A0E30600A0E10310A0E187
:10250C0000A08DE501FCFFEBFFFEFFEAFFFF0000E2
:10251C000130A0E103C0A0E304E02DE54C2090E5E0
:10252C000300A0E1043092E514D04DE2082082E2D1
:10253C0008208DE504108DE2232CA0E10334A0E1EA
:10254C000CC0CDE504308DE50D20CDE5E8FEFFEBAC
:10255C0014D08DE204E09DE41EFF2FE110402DE924
:10256C00E2FEFFEB1040BDE8480090E51EFF2FE1B6
:10257C0010402DE9DDFEFFEB4C0090E50730D0E577
:10258C00023083E2030180E01040BDE81EFF2FE122
:10259C00002103E00B4B5B58435004310A480B4BB2
:1025AC0042189A42F6D30A4A02E0002342F8043B4E
:1025BC00084B9A42F9D3FEF763FB00F043F8FEF7A1
:1025CC0017F97047D83F0008000000206C08002065
:1025DC006C080020EC080020FEE7000010402DE9FC
:1025EC00010000EB10402DE9FBFFFFEB0600A0E320
:1025FC0010402DE94A0100EB0100A0E3A3F8FFEB2A
:10260C0004309FE5000093E51EFF2FE12800002019
:10261C0010402DE90010A0E30040A0E1ED0100EB1B
:10262C0018309FE5000093E53C3090E5000053E343
:10263C000FE0A01113FF2F110400A0E193F8FFEBA2
:10264C00E83E000870402DE96C609FE56C509FE5FA
:10265C00056046E04661B0E10700000A0040A0E3D7
:10266C00045045E20430B5E5014084E20FE0A0E1FE
:10267C0013FF2FE1040056E1F9FFFF1A40609FE5BC
:10268C0040509FE5056046E0EF0500EB4661B0E188
:10269C000700000A0040A0E3045045E20430B5E511
:1026AC00014084E20FE0A0E113FF2FE1040056E1AA
:1026BC00F9FFFF1A7040BDE81EFF2FE1CC3F000868
:1026CC00CC3F0008D43F0008CC3F00080F0052E379
:1026DC003600009A013080E1030013E33F00001A3A
:1026EC0010C042E2F0402DE9204081E20FE0CCE343
:1026FC00103081E2106080E20E4084E02C52A0E1A8
:10270C000CE013E508C013E5107013E50CE006E5CA
:10271C00103083E214E013E5040053E1005006E9A5
:10272C00107006E5106086E2F4FFFF1A01C085E226
:10273C000C0012E30F3002E20C1281E00320A00126
:10274C000CC280E00D00000A0140A0E1043043E21D
:10275C000360C3E323E1A0E106608CE004304CE2AB
:10276C00045094E40450A3E5060053E1FBFFFF1A68
:10277C0001308EE2032002E203C18CE0031181E000
:10278C00000052E3013042E20130831201204C126E
:10279C00033081100300000A01C0D1E4030051E1B1
:1027AC0001C0E2E5FBFFFF1AF040BDE81EFF2FE180
:1027BC00000052E300C0A0E1013042E21EFF2F01F5
:1027CC00013083E201204CE2033081E001C0D1E40E
:1027DC00030051E101C0E2E5FBFFFF1A1EFF2FE1F0
:1027EC0000C0A0E1013042E2F4FFFFEA030010E375
:1027FC004000000A000052E3012042E21EFF2F01BC
:10280C000030A0E1FFC001E2020000EA012042E238
:10281C00010072E31EFF2F0101C0C3E4030013E3A8
:10282C00F9FFFF1A030052E32800009A30402DE90B
:10283C00FFE001E20EE48EE10F0052E30EE88EE1C0
:10284C002E00009A10C042E20F40CCE3205083E2ED
:10285C00045085E02C42A0E110C083E210E00CE5AE
:10286C000CE00CE508E00CE504E00CE510C08CE293
:10287C0005005CE1F8FFFF1A01C084E20C0012E3D2
:10288C000CC283E00F2002E21800000A043042E27E
:10289C000330C3E3043083E203308CE004E08CE4C7
:1028AC000C0053E1FCFFFF1A032002E2000052E38C
:1028BC000400000AFF1001E2022083E00110C3E4CF
:1028CC00030052E1FCFFFF1A3040BDE81EFF2FE170
:1028DC00000052E31EFF2F01FF1001E2022083E0F3
:1028EC000110C3E4030052E1FCFFFF1A1EFF2FE1AD
:1028FC000C30A0E1ECFFFFEA0030A0E1C8FFFFEADA
:10290C0003C0A0E1E0FFFFEA70402DE9DC4290E556
:10291C00000054E30200000A0000A0E37040BDE890
:10292C001EFF2FE18010A0E30050A0E19C0100EB02
:10293C00000050E3DC0285E50500000A043040E2AB
:10294C007C2080E20440A3E5020053E1FCFFFF1A67
:10295C00F0FFFFEA0000E0E3EFFFFFEA1F0051E3A6
:10296C0070402DE91630A0830050A0E10000E083F8
:10297C00003085850600008ADCE295E500005EE308
:10298C000140A0E10260A0E10300000A04019EE7FF
:10299C0004618EE77040BDE81EFF2FE18010A0E3BC
:1029AC007F0100EB000050E300E0A0E1DC0285E5D4
:1029BC000600000A0010A0E3043040E27CC080E274
:1029CC000410A3E503005CE1FCFFFF1AEEFFFFEA35
:1029DC000000E0E3EEFFFFEA1F0051E370402DE939
:1029EC001630A0830050A0E10000E0830030858504
:1029FC001400008ADC2295E5000052E30140A0E1BE
:102A0C001200000A013192E7000053E30F00000AA4
:102A1C00010053E30000A0030A00000A010073E365
:102A2C001630A0030100A003003085050500000A44
:102A3C000050A0E30100A0E1015182E70FE0A0E10A
:102A4C0013FF2FE10500A0E17040BDE81EFF2FE150
:102A5C000500A0E1D10000EB0420A0E10010A0E1F2
:102A6C000500A0E1BD0000EB7040BDE81EFF2FE1AA
:102A7C001F0051E32800008ADC2290E5000052E39D
:102A8C0070402DE90140A0E10050A0E11100000AC6
:102A9C00043192E7000053E30100A003042182E01B
:102AAC000A00000A010073E31700000A010053E357
:102ABC000300A0030500000A0050A0E30400A0E1FD
:102ACC00005082E50FE0A0E113FF2FE10500A0E12B
:102ADC007040BDE81EFF2FE18010A0E3300100EB39
:102AEC00000050E30020A0E1DC0285E50800000AAC
:102AFC000000A0E3043042E27C1082E20400A3E573
:102B0C00030051E1FCFFFF1AE0FFFFEA0200A0E323
:102B1C00EEFFFFEA0000E0E3ECFFFFEA0000E0E379
:102B2C001EFF2FE190309FE51F0050E370402DE910
:102B3C00005093E51630A0830000E08300308585BB
:102B4C001300008ADC2295E5000052E30040A0E16E
:102B5C001100000A003192E7000053E30E00000A56
:102B6C00010053E30000A0030900000A010073E315
:102B7C001630A0030100A003003085050400000AF4
:102B8C000050A0E3045182E70FE0A0E113FF2FE116
:102B9C000500A0E17040BDE81EFF2FE10500A0E19B
:102BAC007E0000EB0420A0E10010A0E10500A0E1F4
:102BBC006A0000EB7040BDE81EFF2FE128000020EA
:102BCC007C309FE51F0050E370402DE9006093E5D9
:102BDC001630A0830000E083003086850600008A52
:102BEC000150A0E1DC1296E5000051E30040A0E1A9
:102BFC000300000A040191E7045181E77040BDE82D
:102C0C001EFF2FE18010A0E30600A0E1E40000EB22
:102C1C00000050E30010A0E1DC0286E50600000A8B
:102C2C000020A0E3043040E27CC080E20420A3E555
:102C3C000C0053E1FCFFFF1AEDFFFFEA0000E0E39C
:102C4C00EDFFFFEA2800002054309FE570402DE98D
:102C5C00005093E5DC4295E5000054E30200000AC5
:102C6C000000A0E37040BDE81EFF2FE18010A0E340
:102C7C000500A0E1CA0000EB000050E3DC0285E592
:102C8C000500000A043040E27C2080E20440A3E509
:102C9C00020053E1FCFFFF1AF0FFFFEA0000E0E343
:102CAC00EFFFFFEA28000020AC309FE51F0050E347
:102CBC0070402DE9005093E52500008ADC2295E553
:102CCC00000052E30040A0E11100000A043192E739
:102CDC00000053E30100A003042182E00A00000A73
:102CEC00010073E31800000A010053E30300A00382
:102CFC000500000A0050A0E30400A0E1005082E5AA
:102D0C000FE0A0E113FF2FE10500A0E17040BDE84A
:102D1C001EFF2FE18010A0E30500A0E1A00000EB56
:102D2C00000050E30020A0E1DC0285E50800000A69
:102D3C000000A0E3043042E27C1082E20400A3E530
:102D4C00010053E1FCFFFF1ADFFFFFEA0200A0E3E2
:102D5C00EDFFFFEA0000E0E3EBFFFFEA28000020B4
:102D6C0000C0A0E370402DE92C509FE50040A0E18D
:102D7C000100A0E10210A0E100C085E5B5F6FFEB73
:102D8C00010070E30200001A003095E5000053E3E7
:102D9C00003084157040BDE81EFF2FE1E8080020CC
:102DAC0010402DE9A4F6FFEB1040BDE81EFF2FE10B
:102DBC0018309FE5000053E31EFF2F0110402DE952
:102DCC000C009FE5510000EB1040BDE81EFF2FE109
:102DDC00000000003C2F0008F04F2DE900B0A0E1EE
:102DEC0020319FE50CD04DE2000093E50170A0E18D
:102DFC0004B08DE5630000EB0C319FE5008093E59A
:102E0C00486198E5000056E32800000A0190A0E311
:102E1C0000A0A0E3044096E5015054E22300004AD0
:102E2C00014084E2044186E0030000EA015045E2DF
:102E3C00010075E3044044E21C00000A000057E363
:102E4C000200000A003194E5070053E1F6FFFF1A77
:102E5C00043096E5002094E5013043E2050053E18F
:102E6C000450860500A08415000052E3EEFFFF0A13
:102E7C00883196E51915A0E1030011E104B096E53F
:102E8C001000001A0FE0A0E112FF2FE1042096E5DC
:102E9C000B0052E11500001A483198E5060053E189
:102EAC00E1FFFF0A0360A0E1000056E3D8FFFF1A20
:102EBC0050309FE5000093E5380000EB0CD08DE21C
:102ECC00F04FBDE81EFF2FE18C0196E5000011E1EB
:102EDC000800001A04009DE5801094E50FE0A0E1C5
:102EEC0012FF2FE1042096E50B0052E1E9FFFF0AE7
:102EFC00486198E5EBFFFFEA800094E50FE0A0E164
:102F0C0012FF2FE1E0FFFFEA58040020E83E000822
:102F1C000030A0E310402DE90010A0E10320A0E157
:102F2C000300A0E19D0200EB1040BDE81EFF2FE165
:102F3C0070402DE930509FE530409FE5044045E05E
:102F4C004441B0E10500000A043035E5014044E29B
:102F5C000FE0A0E113FF2FE1000054E3F9FFFF1A8B
:102F6C00BF0300EB7040BDE81EFF2FE1D83F000807
:102F7C00D43F00081EFF2FE11EFF2FE11EFF2FE1A3
:102F8C001EFF2FE11EFF2FE11EFF2FE10100A0E32A
:102F9C001EFF2FE10100A0E31EFF2FE11EFF2FE11A
:102FAC001EFF2FE1F04F2DE90B3081E2160053E3A9
:102FBC000070A0E10CD04DE21C00008A100051E31F
:102FCC003E00008AFA0100EB1050A0E31820A0E3A9
:102FDC0002C0A0E3B8879FE5022088E0044092E598
:102FEC00083042E2030054E13B00000A043094E54F
:102FFC000C2094E5081094E50330C3E3033084E01F
:10300C000C2081E5081082E5042093E5012082E381
:10301C000700A0E1042083E5084084E2EA0100EB0C
:10302C000400A0E10CD08DE2F04FBDE81EFF2FE1B3
:10303C000750C3E3050051E10010A0930110A083D9
:10304C00A33F91E11D00001AD90100EB7E0F55E35F
:10305C003F01003AA534B0E1B200000A040053E38A
:10306C002101008A2533A0E139C083E238E083E2F4
:10307C008C01A0E118879FE5000088E0043090E502
:10308C00080040E2030050E10500001A160000EAB7
:10309C00000051E3EA0000AA0C3093E5030050E174
:1030AC001100000A042093E50320C2E3051042E05E
:1030BC000F0051E3F5FFFFDA0EC0A0E10A0000EAB1
:1030CC000040A0E30C30A0E30400A0E1003087E551
:1030DC000CD08DE2F04FBDE81EFF2FE10C4092E5C5
:1030EC00040052E102C08C02BFFFFF1A104098E5A9
:1030FC00A0E69FE50E0054E1046098051800000A54
:10310C00041094E50310C1E3053041E00F0053E3D4
:10311C00120100CA000053E314E088E510E088E5D2
:10312C00B20000AA020C51E3D400002A0120A0E353
:10313C00046098E5A131A0E1023083E0A112A0E186
:10314C00126186E1831198E7832188E0082042E22E
:10315C00081084E50C2084E5046088E5834188E749
:10316C000C4081E50110A0E34C31A0E11113A0E16A
:10317C00060051E16F00009A084098E5046094E560
:10318C000360C6E3060055E10020A0930120A08354
:10319C00053046E00F0053E3012082D3000052E3D8
:1031AC009A00000AF0A59FE5F0359FE500209AE50E
:1031BC00003093E5010072E3033085E0013A83129D
:1031CC000F308312FF9EC313109083020F90C9130C
:1031DC000910A0E10700A0E1DF0100EB010070E3A2
:1031EC000020A0E106B084E02A01000A080054E1A6
:1031FC0000005B112701008AA4359FE5001093E5C0
:10320C0000005BE1011089E0001083E51801000A61
:10321C0000009AE5010070E30BB0421001108B1016
:10322C0000208A050010831507B012E2E200001A94
:10323C00091082E0001061E201AAA0E12AAAA0E133
:10324C000A10A0E10700A0E104208DE5C20100EB0B
:10325C00010070E30BA0A00104209DE540359FE523
:10326C000100000A020040E00A9080E0001093E5A3
:10327C00019089E301108AE0080054E1082088E5F8
:10328C00001083E5049082E51901000A0F0056E353
:10329C000130A093043082951E00009A05E0A0E353
:1032AC0004C094E50C0046E20700C0E301C00CE248
:1032BC0000C08CE10F0050E3000084E004C084E502
:1032CC0004E080E508E080E51A01008A0240A0E1F4
:1032DC00049092E5CC349FE5002093E5010052E187
:1032EC0000108335C0349FE5002093E5010052E1C6
:1032FC00001083350390C9E3053049E00F0053E318
:10330C000020A0C30120A0D3090055E10120828335
:10331C00000052E33D00000A0700A0E12A0100EB87
:10332C000040A0E33DFFFFEA020CA0E340C0A0E395
:10333C003FE0A0E34EFFFFEA060011E10800001A8F
:10334C008110A0E103C0CCE3060011E104C08CE2C3
:10335C000300001A8110A0E1060011E104C08CE208
:10336C00FBFFFF0A8C9188E00900A0E10C40A0E172
:10337C000C6090E5060050E10500001A630000EABD
:10338C00000052E3660000AA0C6096E5060050E1CE
:10339C005E00000A043096E50330C3E3052043E0E9
:1033AC000F0052E3F5FFFFDA084086E2101094E8B4
:1033BC00051086E0015085E3045086E50CC084E5D9
:1033CC0008408CE501C082E3141088E5101088E5F4
:1033DC000700A0E10CE081E508E081E504C081E58F
:1033EC00032086E7F80000EB084086E20BFFFFEABB
:1033FC00011084E0043091E5013083E30700A0E183
:10340C00043081E5F00000EB084084E203FFFFEAA2
:10341C00052084E0013083E3015085E3045084E50A
:10342C000700A0E1082088E5084084E2043082E52A
:10343C00E50000EB0400A0E10CD08DE2F04FBDE8FC
:10344C001EFF2FE10C1093E508C093E5022083E0EA
:10345C000C108CE508C081E5041092E5084083E26D
:10346C00013081E30700A0E1043082E5D60000EBD7
:10347C000400A0E10CD08DE2F04FBDE81EFF2FE15F
:10348C000A0C51E3A134A0E14200003A140053E3CA
:10349C008900008A5C2083E28221A0E15B3083E218
:1034AC00020098E7022088E0082042E2000052E186
:1034BC007B00000A043090E50330C3E3010053E1C4
:1034CC000200009A080090E5000052E1F8FFFF1A94
:1034DC000C2090E5046098E50C2084E5080084E558
:1034EC00084082E50C4080E51DFFFFEA140053E321
:1034FC002D00009A540053E37600008A2536A0E193
:10350C006FC083E26EE083E28C01A0E1D8FEFFEA9B
:10351C00014084E2030014E3080080E293FFFF1AE9
:10352C003E0000EA0640A0E1033086E0042093E56B
:10353C00012082E30C1096E5042083E50830B4E505
:10354C000700A0E10C1083E5083081E59E0000EB3C
:10355C00B2FEFFEAA5C1A0E1082085E29CFEFFEACD
:10356C00052084E001C083E3015085E3045084E529
:10357C000700A0E1142088E5102088E50CE082E526
:10358C0008E082E504C082E5013084E78E0000EBA0
:10359C00084084E2A1FEFFEA2133A0E1392083E256
:1035AC008221A0E1383083E2BCFFFFEA5CC083E2F9
:1035BC005BE083E28C01A0E1ADFEFFEA08106BE258
:1035CC00012082E0011A6BE2099082E0081081E28E
:1035DC00091041E001AAA0E12AAAA0E10A10A0E189
:1035EC000700A0E104208DE5DB0000EB010070E397
:1035FC0004209DE5A8319FE519FFFF1A08B04BE2A6
:10360C000B9089E000A0A0E3029049E016FFFFEACE
:10361C00083019E4090053E101C04CE25A00001AC9
:10362C0003001CE3F9FFFF1A043098E50130C3E1F5
:10363C00043088E58110B0E10120A0130020A00324
:10364C00030051E10020A08301200292000052E30C
:10365C00C8FEFF0A030011E10300001A8110A0E16B
:10366C00030011E1044084E2FBFFFF0A04C0A0E167
:10367C003BFFFFEA0B0AA0E1200AA0E1000050E3A7
:10368C00E2FEFF1A084098E5099086E0019089E374
:10369C00049084E50EFFFFEA084098E5049094E559
:1036AC0013FFFFEA0110A0E3046098E54331A0E1A9
:1036BC00116386E1046088E586FFFFEA540053E35A
:1036CC000D00008A2136A0E16F2083E28221A0E167
:1036DC006E3083E271FFFFEA550F53E30D00008A51
:1036EC00A537A0E178C083E277E083E28C01A0E10A
:1036FC005FFEFFEA0240A0E1F5FEFFEA550F53E33F
:10370C001400008AA137A0E1782083E28221A0E195
:10371C00773083E261FFFFEA90209FE5020053E1DE
:10372C001500008A2539A0E17DC083E27CE083E2AC
:10373C008C01A0E14EFEFFEA081084E20700A0E134
:10374C00050100EB084098E554309FE5049094E5A2
:10375C00001093E5DEFEFFEA50209FE5020053E1E6
:10376C002139A0917D208392FE2FA0837E30A083EF
:10377C007C3083928221A09148FFFFEAFE0FA0E3E8
:10378C007FC0A0E37EE0A0E339FEFFEA043098E5B9
:10379C00A7FFFFEA5C0400206404002064080020FA
:1037AC00E4080020B4080020DC080020E008002019
:1037BC005405000010402DE908009FE5F1FDFFEBDA
:1037CC001040BDE81EFF2FE1A408002010402DE999
:1037DC0008009FE5F1FDFFEB1040BDE81EFF2FE157
:1037EC00A4080020F0412DE9006091E5000056E3AB
:1037FC000140A0E10050A0E11100000A007096E524
:10380C00000057E30B00000A008097E5000058E326
:10381C000500000A001098E5000051E3F0FFFF1BC3
:10382C000810A0E10500A0E1CB0000EB0710A0E11F
:10383C000500A0E1C80000EB0610A0E10500A0E126
:10384C00C50000EB0410A0E10500A0E1C20000EBF4
:10385C00F041BDE81EFF2FE1F8309FE5003093E505
:10386C00000053E11EFF2F014C1090E5000051E3C6
:10387C0070402DE90050A0E10F00000A0060A0E3A9
:10388C00064091E7000054E30600000A0410A0E192
:10389C00004094E50500A0E1AF0000EB000054E30C
:1038AC00F9FFFF1A4C1095E5046086E2800056E3A0
:1038BC00F2FFFF1A0500A0E1A70000EB401095E510
:1038CC00000051E30500A011A300001B484195E541
:1038DC00000054E30800000A536F85E2060054E12F
:1038EC000500000A0410A0E1004094E50500A0E1E9
:1038FC00990000EB040056E1F9FFFF1A541095E50E
:10390C00000051E30500A0119300001B383095E531
:10391C00000053E30D00000A0500A0E13C3095E5E2
:10392C000FE0A0E113FF2FE1E04295E5000054E326
:10393C000600000A001094E5000051E30500A011F8
:10394C00A7FFFF1B0410A0E10500A0E1820000EB23
:10395C007040BDE81EFF2FE1280000200020A0E3EE
:10396C0070402DE930509FE50040A0E10100A0E13E
:10397C00002085E591F4FFEB010070E30100000AE3
:10398C007040BDE81EFF2FE1003095E5000053E3C9
:10399C00003084157040BDE81EFF2FE1E8080020C0
:1039AC00F0412DE9A8809FE50040A0E1000098E5DA
:1039BC000360A0E10150A0E10270A0E171FDFFEBFA
:1039CC0090309FE5003093E548C193E500005CE33F
:1039DC0053CF830204E09CE548C183051F005EE3DE
:1039EC00170000CA000054E30800001A01308EE2F0
:1039FC0002E08EE204308CE5000098E50E518CE775
:103A0C0066FDFFEB0000A0E3F041BDE81EFF2FE1D7
:103A1C000130A0E30E118CE0887081E588219CE5D3
:103A2C00133EA0E1032082E188218CE5086181E549
:103A3C00020054E38C219C05033082018C318C05EF
:103A4C00E9FFFFEA000098E554FDFFEB0000E0E31E
:103A5C00ECFFFFEA58040020E83E0008F0412DE995
:103A6C000140A0E1E4709FE50060A0E150FFFFEB96
:103A7C00083097E5045093E5FE3E64E20350C5E33D
:103A8C000F3083E2053083E0FF3EC3E30F30C3E326
:103A9C00014A43E2010A54E3060000BA0010A0E315
:103AAC000600A0E1ACFFFFEB083097E5053083E0A2
:103ABC00030050E10400000A0600A0E142FFFFEB06
:103ACC000000A0E3F041BDE81EFF2FE10600A0E1DD
:103ADC00001064E2A0FFFFEB010070E30C00000A91
:103AEC00083097E568209FE5045045E0015085E3D8
:103AFC00045083E5003092E50600A0E1043043E079
:103B0C00003082E530FFFFEB0100A0E3F041BDE89F
:103B1C001EFF2FE10010A0E30600A0E18EFFFFEBDB
:103B2C00082097E5023040E00F0053E3E1FFFFDA95
:103B3C00013083E3043082E518309FE5003093E5D3
:103B4C000C109FE5030040E0000081E5D9FFFFEA7F
:103B5C005C040020B40800206408002070402DE9AB
:103B6C00004051E23100000A0050A0E110FFFFEBD1
:103B7C00040014E5BC229FE508C044E2083092E53D
:103B8C000110C0E301E08CE00E0053E104309EE52F
:103B9C000330C3E36500000A010010E304308EE536
:103BAC002400001A080014E500C04CE0001081E06D
:103BBC0008009CE5084082E2040050E14B00000A3A
:103BCC0003608EE0046096E5010016E30C609CE552
:103BDC000C6080E5080086E57300000A013081E383
:103BEC0004308CE500108EE5020C51E32600002A0F
:103BFC0001E0A0E3040092E5A131A0E1A112A0E153
:103C0C00013083E21E1180E1041082E5830192E70A
:103C1C00831182E0081041E20C108CE508008CE561
:103C2C0083C182E70CC080E50500A0E1E6FEFFEB56
:103C3C007040BDE81EFF2FE103008EE0040090E50C
:103C4C00010010E30B00001A031081E0084082E22F
:103C5C0008309EE5040053E15F00000A0C009EE56D
:103C6C000C0083E5083080E5013081E304308CE5FD
:103C7C0001108CE7DBFFFFEA013081E3020C51E31A
:103C8C00043004E500108EE5D8FFFF3A0A0C51E32E
:103C9C00A134A0E13B00002A2133A0E1390083E2EA
:103CAC0038E083E28001A0E1003092E7000082E07E
:103CBC00080040E2030050E14100000A042093E5B3
:103CCC000320C2E3010052E10200009A083093E5A0
:103CDC00030050E1F8FFFF1A0C0093E50C008CE593
:103CEC0008308CE508C080E50CC083E5CDFFFFEA09
:103CFC0003208EE0042092E5010012E301308113D1
:103D0C0004308C1500108E15C6FFFF1A013083E0AD
:103D1C0008108EE2060091E80C2081E5081082E57F
:103D2C00012083E304208CE503308CE7BDFFFFEA20
:103D3C00010010E3033081E00600001A081014E5BE
:103D4C0001C04CE008008CE2013083E0030090E8F5
:103D5C000C1080E5080081E5011083E304108CE56C
:103D6C00D4109FE508C082E5002091E5030052E1E4
:103D7C00ACFFFF8AC4309FE50500A0E1001093E57D
:103D8C0035FFFFEBA7FFFFEA140053E30800009A8E
:103D9C00540053E31700008A2136A0E16F0083E240
:103DAC006EE083E28001A0E1BEFFFFEA031081E038
:103DBC00A6FFFFEA5C0083E25BE083E28001A0E106
:103DCC00B8FFFFEA0140A0E3041092E54EE1A0E148
:103DDC0014EE81E104E082E5BFFFFFEA013081E3EC
:103DEC0014C082E510C082E518008CE90C408CE50B
:103DFC0001108CE78BFFFFEA550F53E30400008A98
:103E0C00A137A0E1780083E277E083E28001A0E1B2
:103E1C00A4FFFFEA28009FE5000053E12139A0919F
:103E2C007D008392FE0FA0837EE0A0837CE08392D2
:103E3C008001A0919BFFFFEA5C0400206808002031
:103E4C00E408002054050000000000000DC0A0E1B3
:103E5C00F8DF2DE904B04CE228D04BE2F06F9DE87E
:103E6C001EFF2FE10DC0A0E1F8DF2DE904B04CE2FC
:0C3E7C0028D04BE2F06F9DE81EFF2FE104
:103E88003B3E0B3E103E253E333E033E063E143E6F
:103E98000E3E0D3E243E123E273E023E183E093E8F
:103EA8000A3E0000000000000000000001020304B8
:103EB8000607080900000000010203043B3E0B3E10
:103EC800103E253E333E033E063E143E0E3E0D3E5A
:103ED800243E123E273E023E183E093E0A3E00009E
:043EE8003000002086
:103EEC00409B0181B0B0808400000000409B0181A8
:083EFC00B0B08084000000005A
:103F040078C2FF7F010000009CC7FF7FDCFFFF7FBA
:103F1400E8C8FF7FE0FFFF7FF0C8FF7F01000000DB
:103F24005CD0FF7FB0A902807CD1FF7FB0B0A880B5
:103F340004D2FF7F010000001CD2FF7FB0B0AA8032
:103F44007CD2FF7FAE71B280B8D3FF7F0100000046
:103F5400B8D3FF7FAA3F37805CD4FF7F0100000005
:103F64007CD4FF7FB0B0AA80ECD4FF7F01000000B6
:103F740034D6FF7FAA0DB280F8D6FF7FB0AF088099
:103F84002CDBFF7F010000003CDBFF7FAD3F0280A4
:103F940028DFFF7F0100000030E1FF7F0084048000
:103FA40058E1FF7F0100000054E1FF7FB0AE0380C1
:103FB40068E5FF7F00840480ACE5FF7FB0B0A88093
:083FC400D8E5FF7F01000000B9
:083FCC00BC2D00084C010008A7
:043FD4000C010008D4
:103FD80000000000010203050607090A0B0D0E0F79
:103FE8000004284800010203040506070F0C0B0013
:103FF800880800200024F4003000002000000000A1
:10400800000000001C03002084030020EC030020B3
:104018000000000000000000000000000000000098
:104028000000000000000000000000000000000088
:104038000000000000000000000000000000000078
:104048000000000000000000000000000000000068
:104058000000000000000000000000000000000058
:104068000000000000000000000000000000000048
:104078000000000000000000000000000000000038
:104088000000000000000000000000000000000028
:104098000000000000000000000000000000000018
:1040A8000000000000000000010000000000000007
:1040B8000E33CDAB34126DE6ECDE05000B000000CC
:1040C80000000000000000000000000000000000E8
:1040D80000000000000000000000000000000000D8
:1040E80000000000000000000000000000000000C8
:1040F80000000000000000000000000000000000B8
:1044280000000000000000009808002000000000C4
:10443800000000005C0400205C04002064040020EC
:10444800640400206C0400206C0400207404002024
:10445800740400207C0400207C04002084040020D4
:10446800840400208C0400208C0400209404002084
:10447800940400209C0400209C040020A404002034
:10448800A4040020AC040020AC040020B4040020E4
:10449800B4040020BC040020BC040020C404002094
:1044A800C4040020CC040020CC040020D404002044
:1044B800D4040020DC040020DC040020E4040020F4
:1044C800E4040020EC040020EC040020F4040020A4
:1044D800F4040020FC040020FC0400200405002053
:1044E800040500200C0500200C0500201405002000
:1044F800140500201C0500201C05002024050020B0
:10450800240500202C0500202C050020340500205F
:10451800340500203C0500203C050020440500200F
:10452800440500204C0500204C05002054050020BF
:10453800540500205C0500205C050020640500206F
:10454800640500206C0500206C050020740500201F
:10455800740500207C0500207C05002084050020CF
:10456800840500208C0500208C050020940500207F
:10457800940500209C0500209C050020A40500202F
:10458800A4050020AC050020AC050020B4050020DF
:10459800B4050020BC050020BC050020C40500208F
:1045A800C4050020CC050020CC050020D40500203F
:1045B800D4050020DC050020DC050020E4050020EF
:1045C800E4050020EC050020EC050020F40500209F
:1045D800F4050020FC050020FC050020040600204E
:1045E800040600200C0600200C06002014060020FB
:1045F800140600201C0600201C06002024060020AB
:10460800240600202C0600202C060020340600205A
:10461800340600203C0600203C060020440600200A
:10462800440600204C0600204C06002054060020BA
:10463800540600205C0600205C060020640600206A
:10464800640600206C0600206C060020740600201A
:10465800740600207C0600207C06002084060020CA
:10466800840600208C0600208C060020940600207A
:10467800940600209C0600209C060020A40600202A
:10468800A4060020AC060020AC060020B4060020DA
:10469800B4060020BC060020BC060020C40600208A
:1046A800C4060020CC060020CC060020D40600203A
:1046B800D4060020DC060020DC060020E4060020EA
:1046C800E4060020EC060020EC060020F40600209A
:1046D800F4060020FC060020FC0600200407002049
:1046E800040700200C0700200C07002014070020F6
:1046F800140700201C0700201C07002024070020A6
:10470800240700202C0700202C0700203407002055
:10471800340700203C0700203C0700204407002005
:10472800440700204C0700204C07002054070020B5
:10473800540700205C0700205C0700206407002065
:10474800640700206C0700206C0700207407002015
:10475800740700207C0700207C07002084070020C5
:10476800840700208C0700208C0700209407002075
:10477800940700209C0700209C070020A407002025
:10478800A4070020AC070020AC070020B4070020D5
:10479800B4070020BC070020BC070020C407002085
:1047A800C4070020CC070020CC070020D407002035
:1047B800D4070020DC070020DC070020E4070020E5
:1047C800E4070020EC070020EC070020F407002095
:1047D800F4070020FC070020FC0700200408002044
:1047E800040800200C0800200C08002014080020F1
:1047F800140800201C0800201C08002024080020A1
:10480800240800202C0800202C0800203408002050
:10481800340800203C0800203C0800204408002000
:10482800440800204C0800204C08002054080020B0
:0C48380054080020FFFFFFFF00000200FA
:040000050800259D2D
:00000001FF
